{
  "contractName": "Subasta",
  "abi": [
    {
      "anonymous": false,
      "inputs": [
        {
          "indexed": false,
          "internalType": "uint256",
          "name": "subastaId",
          "type": "uint256"
        },
        {
          "indexed": false,
          "internalType": "address",
          "name": "apostador",
          "type": "address"
        },
        {
          "indexed": false,
          "internalType": "uint256",
          "name": "cantidad",
          "type": "uint256"
        }
      ],
      "name": "NuevaOferta",
      "type": "event"
    },
    {
      "anonymous": false,
      "inputs": [
        {
          "indexed": false,
          "internalType": "uint256",
          "name": "subastaId",
          "type": "uint256"
        },
        {
          "indexed": false,
          "internalType": "address",
          "name": "creador",
          "type": "address"
        }
      ],
      "name": "NuevaSubasta",
      "type": "event"
    },
    {
      "anonymous": false,
      "inputs": [
        {
          "indexed": false,
          "internalType": "uint256",
          "name": "subastaId",
          "type": "uint256"
        },
        {
          "indexed": false,
          "internalType": "address",
          "name": "ganador",
          "type": "address"
        },
        {
          "indexed": false,
          "internalType": "uint256",
          "name": "cantidad",
          "type": "uint256"
        }
      ],
      "name": "SubastaFinalizada",
      "type": "event"
    },
    {
      "inputs": [],
      "name": "nftContract",
      "outputs": [
        {
          "internalType": "contract NFT",
          "name": "",
          "type": "address"
        }
      ],
      "stateMutability": "view",
      "type": "function",
      "constant": true
    },
    {
      "inputs": [
        {
          "internalType": "uint256",
          "name": "",
          "type": "uint256"
        }
      ],
      "name": "subastas",
      "outputs": [
        {
          "internalType": "uint256",
          "name": "idSubasta",
          "type": "uint256"
        },
        {
          "internalType": "address",
          "name": "nftContract",
          "type": "address"
        },
        {
          "internalType": "address",
          "name": "creador",
          "type": "address"
        },
        {
          "internalType": "string",
          "name": "nombreArticulo",
          "type": "string"
        },
        {
          "internalType": "uint256",
          "name": "idNFT",
          "type": "uint256"
        },
        {
          "internalType": "string",
          "name": "descripcion",
          "type": "string"
        },
        {
          "internalType": "uint256",
          "name": "precioActual",
          "type": "uint256"
        },
        {
          "internalType": "uint256",
          "name": "duracion",
          "type": "uint256"
        },
        {
          "internalType": "uint256",
          "name": "finalizacion",
          "type": "uint256"
        },
        {
          "internalType": "address",
          "name": "ganador",
          "type": "address"
        },
        {
          "internalType": "bool",
          "name": "finalizada",
          "type": "bool"
        }
      ],
      "stateMutability": "view",
      "type": "function",
      "constant": true
    },
    {
      "inputs": [
        {
          "internalType": "uint256",
          "name": "_idSubasta",
          "type": "uint256"
        }
      ],
      "name": "getOwner",
      "outputs": [
        {
          "internalType": "address",
          "name": "",
          "type": "address"
        }
      ],
      "stateMutability": "view",
      "type": "function",
      "constant": true
    },
    {
      "inputs": [
        {
          "internalType": "string",
          "name": "_nombreArticulo",
          "type": "string"
        },
        {
          "internalType": "string",
          "name": "_simboloArticulo",
          "type": "string"
        },
        {
          "internalType": "string",
          "name": "_descripcion",
          "type": "string"
        },
        {
          "internalType": "uint256",
          "name": "_precioInicial",
          "type": "uint256"
        },
        {
          "internalType": "uint256",
          "name": "_duracion",
          "type": "uint256"
        }
      ],
      "name": "iniciarSubasta",
      "outputs": [
        {
          "components": [
            {
              "internalType": "uint256",
              "name": "idSubasta",
              "type": "uint256"
            },
            {
              "internalType": "address",
              "name": "nftContract",
              "type": "address"
            },
            {
              "internalType": "address",
              "name": "creador",
              "type": "address"
            },
            {
              "internalType": "string",
              "name": "nombreArticulo",
              "type": "string"
            },
            {
              "internalType": "uint256",
              "name": "idNFT",
              "type": "uint256"
            },
            {
              "internalType": "string",
              "name": "descripcion",
              "type": "string"
            },
            {
              "internalType": "uint256",
              "name": "precioActual",
              "type": "uint256"
            },
            {
              "internalType": "uint256",
              "name": "duracion",
              "type": "uint256"
            },
            {
              "internalType": "uint256",
              "name": "finalizacion",
              "type": "uint256"
            },
            {
              "internalType": "address",
              "name": "ganador",
              "type": "address"
            },
            {
              "internalType": "bool",
              "name": "finalizada",
              "type": "bool"
            }
          ],
          "internalType": "struct Subasta.subasta",
          "name": "",
          "type": "tuple"
        }
      ],
      "stateMutability": "nonpayable",
      "type": "function"
    },
    {
      "inputs": [
        {
          "internalType": "uint256",
          "name": "_subastaId",
          "type": "uint256"
        }
      ],
      "name": "apostar",
      "outputs": [],
      "stateMutability": "payable",
      "type": "function",
      "payable": true
    },
    {
      "inputs": [
        {
          "internalType": "uint256",
          "name": "_idSubasta",
          "type": "uint256"
        }
      ],
      "name": "finalizacionSubasta",
      "outputs": [],
      "stateMutability": "payable",
      "type": "function",
      "payable": true
    }
  ],
  "bytecode": "0x60806040526000600355600060045534801561001a57600080fd5b506148ec8061002a6000396000f3fe6080604052600436106200005c5760003560e01c8063221583fe14620000615780633555974314620000a55780635da08ca314620000f3578063c41a360a1462000113578063d0349c1b1462000157578063d56d229d1462000177575b600080fd5b3480156200006e57600080fd5b506200008d60048036038101906200008791906200109d565b620001a7565b6040516200009c91906200138a565b60405180910390f35b348015620000b257600080fd5b50620000d16004803603810190620000cb9190620013ae565b620005e4565b604051620000ea9b9a9998979695949392919062001465565b60405180910390f35b6200011160048036038101906200010b9190620013ae565b620007cb565b005b3480156200012057600080fd5b506200013f6004803603810190620001399190620013ae565b62000ae5565b6040516200014e919062001534565b60405180910390f35b6200017560048036038101906200016f9190620013ae565b62000bb6565b005b3480156200018457600080fd5b506200018f62000e1c565b6040516200019e9190620015bc565b60405180910390f35b620001b162000e40565b8585604051620001c19062000ede565b620001ce929190620015d9565b604051809103906000f080158015620001eb573d6000803e3d6000fd5b506000806101000a81548173ffffffffffffffffffffffffffffffffffffffff021916908373ffffffffffffffffffffffffffffffffffffffff16021790555060008054906101000a900473ffffffffffffffffffffffffffffffffffffffff1673ffffffffffffffffffffffffffffffffffffffff1663c11c956c306003546040518363ffffffff1660e01b81526004016200028a92919062001614565b600060405180830381600087803b158015620002a557600080fd5b505af1158015620002ba573d6000803e3d6000fd5b5050505060008054906101000a900473ffffffffffffffffffffffffffffffffffffffff1660026000600454815260200190815260200160002060006101000a81548173ffffffffffffffffffffffffffffffffffffffff021916908373ffffffffffffffffffffffffffffffffffffffff1602179055506000604051806101600160405280600454815260200160008054906101000a900473ffffffffffffffffffffffffffffffffffffffff1673ffffffffffffffffffffffffffffffffffffffff1681526020013373ffffffffffffffffffffffffffffffffffffffff16815260200188815260200160035481526020018681526020018581526020018481526020018442620003ce919062001670565b8152602001600073ffffffffffffffffffffffffffffffffffffffff168152602001600015158152509050806001600060045481526020019081526020016000206000820151816000015560208201518160010160006101000a81548173ffffffffffffffffffffffffffffffffffffffff021916908373ffffffffffffffffffffffffffffffffffffffff16021790555060408201518160020160006101000a81548173ffffffffffffffffffffffffffffffffffffffff021916908373ffffffffffffffffffffffffffffffffffffffff1602179055506060820151816003019081620004be9190620018d7565b506080820151816004015560a0820151816005019081620004e09190620018d7565b5060c0820151816006015560e0820151816007015561010082015181600801556101208201518160090160006101000a81548173ffffffffffffffffffffffffffffffffffffffff021916908373ffffffffffffffffffffffffffffffffffffffff1602179055506101408201518160090160146101000a81548160ff0219169083151502179055509050507fd344e719b32340c8cb91d11d326cd4584dac2acbf181c8878c1561064828d36460045433604051620005a1929190620019be565b60405180910390a16001600454620005ba919062001670565b6004819055506001600354620005d1919062001670565b6003819055508091505095945050505050565b60016020528060005260406000206000915090508060000154908060010160009054906101000a900473ffffffffffffffffffffffffffffffffffffffff16908060020160009054906101000a900473ffffffffffffffffffffffffffffffffffffffff16908060030180546200065b90620016da565b80601f01602080910402602001604051908101604052809291908181526020018280546200068990620016da565b8015620006da5780601f10620006ae57610100808354040283529160200191620006da565b820191906000526020600020905b815481529060010190602001808311620006bc57829003601f168201915b505050505090806004015490806005018054620006f790620016da565b80601f01602080910402602001604051908101604052809291908181526020018280546200072590620016da565b8015620007765780601f106200074a5761010080835404028352916020019162000776565b820191906000526020600020905b8154815290600101906020018083116200075857829003601f168201915b5050505050908060060154908060070154908060080154908060090160009054906101000a900473ffffffffffffffffffffffffffffffffffffffff16908060090160149054906101000a900460ff1690508b565b600454811115620007db57600080fd5b6001600082815260200190815260200160002060020160009054906101000a900473ffffffffffffffffffffffffffffffffffffffff1673ffffffffffffffffffffffffffffffffffffffff163373ffffffffffffffffffffffffffffffffffffffff16146200084a57600080fd5b60016000828152602001908152602001600020600801544211620008a5576040517f08c379a00000000000000000000000000000000000000000000000000000000081526004016200089c9062001a3b565b60405180910390fd5b6001600082815260200190815260200160002060090160009054906101000a900473ffffffffffffffffffffffffffffffffffffffff1673ffffffffffffffffffffffffffffffffffffffff166108fc60016000848152602001908152602001600020600601549081150290604051600060405180830381858888f1935050505015801562000938573d6000803e3d6000fd5b506002600082815260200190815260200160002060009054906101000a900473ffffffffffffffffffffffffffffffffffffffff1673ffffffffffffffffffffffffffffffffffffffff166369e9cae1306001600085815260200190815260200160002060090160009054906101000a900473ffffffffffffffffffffffffffffffffffffffff1660016000868152602001908152602001600020600401546040518463ffffffff1660e01b8152600401620009f79392919062001a5d565b600060405180830381600087803b15801562000a1257600080fd5b505af115801562000a27573d6000803e3d6000fd5b505050507f5497637e735397a576e9d9ce795d0a0f7327b41ab64211b28905b237b69eb748816001600084815260200190815260200160002060090160009054906101000a900473ffffffffffffffffffffffffffffffffffffffff16600160008581526020019081526020016000206006015460405162000aac9392919062001a9a565b60405180910390a1600180600083815260200190815260200160002060090160146101000a81548160ff02191690831515021790555050565b60006002600083815260200190815260200160002060009054906101000a900473ffffffffffffffffffffffffffffffffffffffff1673ffffffffffffffffffffffffffffffffffffffff1663ea01ea2260016000858152602001908152602001600020600401546040518263ffffffff1660e01b815260040162000b6b919062001ad7565b602060405180830381865afa15801562000b89573d6000803e3d6000fd5b505050506040513d601f19601f8201168201806040525081019062000baf919062001b25565b9050919050565b6001600082815260200190815260200160002060080154421062000c11576040517f08c379a000000000000000000000000000000000000000000000000000000000815260040162000c089062001ba7565b60405180910390fd5b6001600082815260200190815260200160002060060154341162000c6c576040517f08c379a000000000000000000000000000000000000000000000000000000000815260040162000c639062001c3f565b60405180910390fd5b600073ffffffffffffffffffffffffffffffffffffffff166001600083815260200190815260200160002060090160009054906101000a900473ffffffffffffffffffffffffffffffffffffffff1673ffffffffffffffffffffffffffffffffffffffff161462000d6c576001600082815260200190815260200160002060090160009054906101000a900473ffffffffffffffffffffffffffffffffffffffff1673ffffffffffffffffffffffffffffffffffffffff166108fc60016000848152602001908152602001600020600601549081150290604051600060405180830381858888f1935050505015801562000d6a573d6000803e3d6000fd5b505b346001600083815260200190815260200160002060060181905550336001600083815260200190815260200160002060090160006101000a81548173ffffffffffffffffffffffffffffffffffffffff021916908373ffffffffffffffffffffffffffffffffffffffff1602179055507f97f896c5200c488dfd494591951b7b23bb16a6992c35b9f3e65cbdb10daebbb281333460405162000e119392919062001a9a565b60405180910390a150565b60008054906101000a900473ffffffffffffffffffffffffffffffffffffffff1681565b60405180610160016040528060008152602001600073ffffffffffffffffffffffffffffffffffffffff168152602001600073ffffffffffffffffffffffffffffffffffffffff168152602001606081526020016000815260200160608152602001600081526020016000815260200160008152602001600073ffffffffffffffffffffffffffffffffffffffff1681526020016000151581525090565b612c558062001c6283390190565b6000604051905090565b600080fd5b600080fd5b600080fd5b600080fd5b6000601f19601f8301169050919050565b7f4e487b7100000000000000000000000000000000000000000000000000000000600052604160045260246000fd5b62000f558262000f0a565b810181811067ffffffffffffffff8211171562000f775762000f7662000f1b565b5b80604052505050565b600062000f8c62000eec565b905062000f9a828262000f4a565b919050565b600067ffffffffffffffff82111562000fbd5762000fbc62000f1b565b5b62000fc88262000f0a565b9050602081019050919050565b82818337600083830152505050565b600062000ffb62000ff58462000f9f565b62000f80565b9050828152602081018484840111156200101a576200101962000f05565b5b6200102784828562000fd5565b509392505050565b600082601f83011262001047576200104662000f00565b5b81356200105984826020860162000fe4565b91505092915050565b6000819050919050565b620010778162001062565b81146200108357600080fd5b50565b60008135905062001097816200106c565b92915050565b600080600080600060a08688031215620010bc57620010bb62000ef6565b5b600086013567ffffffffffffffff811115620010dd57620010dc62000efb565b5b620010eb888289016200102f565b955050602086013567ffffffffffffffff8111156200110f576200110e62000efb565b5b6200111d888289016200102f565b945050604086013567ffffffffffffffff81111562001141576200114062000efb565b5b6200114f888289016200102f565b9350506060620011628882890162001086565b9250506080620011758882890162001086565b9150509295509295909350565b6200118d8162001062565b82525050565b600073ffffffffffffffffffffffffffffffffffffffff82169050919050565b6000620011c08262001193565b9050919050565b620011d281620011b3565b82525050565b600081519050919050565b600082825260208201905092915050565b60005b8381101562001214578082015181840152602081019050620011f7565b60008484015250505050565b60006200122d82620011d8565b620012398185620011e3565b93506200124b818560208601620011f4565b620012568162000f0a565b840191505092915050565b60008115159050919050565b620012788162001261565b82525050565b60006101608301600083015162001299600086018262001182565b506020830151620012ae6020860182620011c7565b506040830151620012c36040860182620011c7565b5060608301518482036060860152620012dd828262001220565b9150506080830151620012f4608086018262001182565b5060a083015184820360a08601526200130e828262001220565b91505060c08301516200132560c086018262001182565b5060e08301516200133a60e086018262001182565b506101008301516200135161010086018262001182565b5061012083015162001368610120860182620011c7565b506101408301516200137f6101408601826200126d565b508091505092915050565b60006020820190508181036000830152620013a681846200127e565b905092915050565b600060208284031215620013c757620013c662000ef6565b5b6000620013d78482850162001086565b91505092915050565b620013eb8162001062565b82525050565b620013fc81620011b3565b82525050565b600082825260208201905092915050565b60006200142082620011d8565b6200142c818562001402565b93506200143e818560208601620011f4565b620014498162000f0a565b840191505092915050565b6200145f8162001261565b82525050565b6000610160820190506200147d600083018e620013e0565b6200148c602083018d620013f1565b6200149b604083018c620013f1565b8181036060830152620014af818b62001413565b9050620014c0608083018a620013e0565b81810360a0830152620014d4818962001413565b9050620014e560c0830188620013e0565b620014f460e0830187620013e0565b62001504610100830186620013e0565b62001514610120830185620013f1565b6200152461014083018462001454565b9c9b505050505050505050505050565b60006020820190506200154b6000830184620013f1565b92915050565b6000819050919050565b60006200157c62001576620015708462001193565b62001551565b62001193565b9050919050565b600062001590826200155b565b9050919050565b6000620015a48262001583565b9050919050565b620015b68162001597565b82525050565b6000602082019050620015d36000830184620015ab565b92915050565b60006040820190508181036000830152620015f5818562001413565b905081810360208301526200160b818462001413565b90509392505050565b60006040820190506200162b6000830185620013f1565b6200163a6020830184620013e0565b9392505050565b7f4e487b7100000000000000000000000000000000000000000000000000000000600052601160045260246000fd5b60006200167d8262001062565b91506200168a8362001062565b9250828201905080821115620016a557620016a462001641565b5b92915050565b7f4e487b7100000000000000000000000000000000000000000000000000000000600052602260045260246000fd5b60006002820490506001821680620016f357607f821691505b602082108103620017095762001708620016ab565b5b50919050565b60008190508160005260206000209050919050565b60006020601f8301049050919050565b600082821b905092915050565b600060088302620017737fffffffffffffffffffffffffffffffffffffffffffffffffffffffffffffffff8262001734565b6200177f868362001734565b95508019841693508086168417925050509392505050565b6000620017b8620017b2620017ac8462001062565b62001551565b62001062565b9050919050565b6000819050919050565b620017d48362001797565b620017ec620017e382620017bf565b84845462001741565b825550505050565b600090565b62001803620017f4565b62001810818484620017c9565b505050565b5b8181101562001838576200182c600082620017f9565b60018101905062001816565b5050565b601f821115620018875762001851816200170f565b6200185c8462001724565b810160208510156200186c578190505b620018846200187b8562001724565b83018262001815565b50505b505050565b600082821c905092915050565b6000620018ac600019846008026200188c565b1980831691505092915050565b6000620018c7838362001899565b9150826002028217905092915050565b620018e282620011d8565b67ffffffffffffffff811115620018fe57620018fd62000f1b565b5b6200190a8254620016da565b620019178282856200183c565b600060209050601f8311600181146200194f57600084156200193a578287015190505b620019468582620018b9565b865550620019b6565b601f1984166200195f866200170f565b60005b82811015620019895784890151825560018201915060208501945060208101905062001962565b86831015620019a95784890151620019a5601f89168262001899565b8355505b6001600288020188555050505b505050505050565b6000604082019050620019d56000830185620013e0565b620019e46020830184620013f1565b9392505050565b7f4c612073756261737461206e6f2068612066696e616c697a61646f0000000000600082015250565b600062001a23601b8362001402565b915062001a3082620019eb565b602082019050919050565b6000602082019050818103600083015262001a568162001a14565b9050919050565b600060608201905062001a746000830186620013f1565b62001a836020830185620013f1565b62001a926040830184620013e0565b949350505050565b600060608201905062001ab16000830186620013e0565b62001ac06020830185620013f1565b62001acf6040830184620013e0565b949350505050565b600060208201905062001aee6000830184620013e0565b92915050565b62001aff81620011b3565b811462001b0b57600080fd5b50565b60008151905062001b1f8162001af4565b92915050565b60006020828403121562001b3e5762001b3d62000ef6565b5b600062001b4e8482850162001b0e565b91505092915050565b7f4c6120737562617374612068612066696e616c697a61646f0000000000000000600082015250565b600062001b8f60188362001402565b915062001b9c8262001b57565b602082019050919050565b6000602082019050818103600083015262001bc28162001b80565b9050919050565b7f4c612061707565737461206465626520736572207375706572696f7220616c2060008201527f70726563696f2061637475616c00000000000000000000000000000000000000602082015250565b600062001c27602d8362001402565b915062001c348262001bc9565b604082019050919050565b6000602082019050818103600083015262001c5a8162001c18565b905091905056fe60806040523480156200001157600080fd5b5060405162002c5538038062002c558339818101604052810190620000379190620001fa565b818181600090816200004a9190620004ca565b5080600190816200005c9190620004ca565b5050505050620005b1565b6000604051905090565b600080fd5b600080fd5b600080fd5b600080fd5b6000601f19601f8301169050919050565b7f4e487b7100000000000000000000000000000000000000000000000000000000600052604160045260246000fd5b620000d08262000085565b810181811067ffffffffffffffff82111715620000f257620000f162000096565b5b80604052505050565b60006200010762000067565b9050620001158282620000c5565b919050565b600067ffffffffffffffff82111562000138576200013762000096565b5b620001438262000085565b9050602081019050919050565b60005b838110156200017057808201518184015260208101905062000153565b60008484015250505050565b6000620001936200018d846200011a565b620000fb565b905082815260208101848484011115620001b257620001b162000080565b5b620001bf84828562000150565b509392505050565b600082601f830112620001df57620001de6200007b565b5b8151620001f18482602086016200017c565b91505092915050565b6000806040838503121562000214576200021362000071565b5b600083015167ffffffffffffffff81111562000235576200023462000076565b5b6200024385828601620001c7565b925050602083015167ffffffffffffffff81111562000267576200026662000076565b5b6200027585828601620001c7565b9150509250929050565b600081519050919050565b7f4e487b7100000000000000000000000000000000000000000000000000000000600052602260045260246000fd5b60006002820490506001821680620002d257607f821691505b602082108103620002e857620002e76200028a565b5b50919050565b60008190508160005260206000209050919050565b60006020601f8301049050919050565b600082821b905092915050565b600060088302620003527fffffffffffffffffffffffffffffffffffffffffffffffffffffffffffffffff8262000313565b6200035e868362000313565b95508019841693508086168417925050509392505050565b6000819050919050565b6000819050919050565b6000620003ab620003a56200039f8462000376565b62000380565b62000376565b9050919050565b6000819050919050565b620003c7836200038a565b620003df620003d682620003b2565b84845462000320565b825550505050565b600090565b620003f6620003e7565b62000403818484620003bc565b505050565b5b818110156200042b576200041f600082620003ec565b60018101905062000409565b5050565b601f8211156200047a576200044481620002ee565b6200044f8462000303565b810160208510156200045f578190505b620004776200046e8562000303565b83018262000408565b50505b505050565b600082821c905092915050565b60006200049f600019846008026200047f565b1980831691505092915050565b6000620004ba83836200048c565b9150826002028217905092915050565b620004d5826200027f565b67ffffffffffffffff811115620004f157620004f062000096565b5b620004fd8254620002b9565b6200050a8282856200042f565b600060209050601f8311600181146200054257600084156200052d578287015190505b620005398582620004ac565b865550620005a9565b601f1984166200055286620002ee565b60005b828110156200057c5784890151825560018201915060208501945060208101905062000555565b868310156200059c578489015162000598601f8916826200048c565b8355505b6001600288020188555050505b505050505050565b61269480620005c16000396000f3fe608060405234801561001057600080fd5b50600436106101165760003560e01c806370a08231116100a2578063b88d4fde11610071578063b88d4fde146102db578063c11c956c146102f7578063c87b56dd14610313578063e985e9c514610343578063ea01ea221461037357610116565b806370a082311461025557806395d89b41146102855780639600dd83146102a3578063a22cb465146102bf57610116565b806323b872dd116100e957806323b872dd146101b55780632890e0d7146101d157806342842e0e146101ed5780636352211e1461020957806369e9cae11461023957610116565b806301ffc9a71461011b57806306fdde031461014b578063081812fc14610169578063095ea7b314610199575b600080fd5b61013560048036038101906101309190611990565b6103a3565b60405161014291906119d8565b60405180910390f35b610153610485565b6040516101609190611a83565b60405180910390f35b610183600480360381019061017e9190611adb565b610517565b6040516101909190611b49565b60405180910390f35b6101b360048036038101906101ae9190611b90565b61055d565b005b6101cf60048036038101906101ca9190611bd0565b610674565b005b6101eb60048036038101906101e69190611adb565b6106d4565b005b61020760048036038101906102029190611bd0565b6106e0565b005b610223600480360381019061021e9190611adb565b610700565b6040516102309190611b49565b60405180910390f35b610253600480360381019061024e9190611bd0565b610786565b005b61026f600480360381019061026a9190611c23565b610796565b60405161027c9190611c5f565b60405180910390f35b61028d61084d565b60405161029a9190611a83565b60405180910390f35b6102bd60048036038101906102b89190611b90565b6108df565b005b6102d960048036038101906102d49190611ca6565b6108ed565b005b6102f560048036038101906102f09190611e1b565b610903565b005b610311600480360381019061030c9190611b90565b610965565b005b61032d60048036038101906103289190611adb565b610973565b60405161033a9190611a83565b60405180910390f35b61035d60048036038101906103589190611e9e565b6109db565b60405161036a91906119d8565b60405180910390f35b61038d60048036038101906103889190611adb565b610a6f565b60405161039a9190611b49565b60405180910390f35b60007f80ac58cd000000000000000000000000000000000000000000000000000000007bffffffffffffffffffffffffffffffffffffffffffffffffffffffff1916827bffffffffffffffffffffffffffffffffffffffffffffffffffffffff1916148061046e57507f5b5e139f000000000000000000000000000000000000000000000000000000007bffffffffffffffffffffffffffffffffffffffffffffffffffffffff1916827bffffffffffffffffffffffffffffffffffffffffffffffffffffffff1916145b8061047e575061047d82610a81565b5b9050919050565b60606000805461049490611f0d565b80601f01602080910402602001604051908101604052809291908181526020018280546104c090611f0d565b801561050d5780601f106104e25761010080835404028352916020019161050d565b820191906000526020600020905b8154815290600101906020018083116104f057829003601f168201915b5050505050905090565b600061052282610aeb565b6004600083815260200190815260200160002060009054906101000a900473ffffffffffffffffffffffffffffffffffffffff169050919050565b600061056882610700565b90508073ffffffffffffffffffffffffffffffffffffffff168373ffffffffffffffffffffffffffffffffffffffff16036105d8576040517f08c379a00000000000000000000000000000000000000000000000000000000081526004016105cf90611fb0565b60405180910390fd5b8073ffffffffffffffffffffffffffffffffffffffff166105f7610b36565b73ffffffffffffffffffffffffffffffffffffffff161480610626575061062581610620610b36565b6109db565b5b610665576040517f08c379a000000000000000000000000000000000000000000000000000000000815260040161065c90612042565b60405180910390fd5b61066f8383610b3e565b505050565b61068561067f610b36565b82610bf7565b6106c4576040517f08c379a00000000000000000000000000000000000000000000000000000000081526004016106bb906120d4565b60405180910390fd5b6106cf838383610c8c565b505050565b6106dd81610f85565b50565b6106fb83838360405180602001604052806000815250610903565b505050565b60008061070c836110d3565b9050600073ffffffffffffffffffffffffffffffffffffffff168173ffffffffffffffffffffffffffffffffffffffff160361077d576040517f08c379a000000000000000000000000000000000000000000000000000000000815260040161077490612140565b60405180910390fd5b80915050919050565b6107918383836106e0565b505050565b60008073ffffffffffffffffffffffffffffffffffffffff168273ffffffffffffffffffffffffffffffffffffffff1603610806576040517f08c379a00000000000000000000000000000000000000000000000000000000081526004016107fd906121d2565b60405180910390fd5b600360008373ffffffffffffffffffffffffffffffffffffffff1673ffffffffffffffffffffffffffffffffffffffff168152602001908152602001600020549050919050565b60606001805461085c90611f0d565b80601f016020809104026020016040519081016040528092919081815260200182805461088890611f0d565b80156108d55780601f106108aa576101008083540402835291602001916108d5565b820191906000526020600020905b8154815290600101906020018083116108b857829003601f168201915b5050505050905090565b6108e9828261055d565b5050565b6108ff6108f8610b36565b8383611110565b5050565b61091461090e610b36565b83610bf7565b610953576040517f08c379a000000000000000000000000000000000000000000000000000000000815260040161094a906120d4565b60405180910390fd5b61095f8484848461127c565b50505050565b61096f82826112d8565b5050565b606061097e82610aeb565b60006109886114f5565b905060008151116109a857604051806020016040528060008152506109d3565b806109b28461150c565b6040516020016109c392919061222e565b6040516020818303038152906040525b915050919050565b6000600560008473ffffffffffffffffffffffffffffffffffffffff1673ffffffffffffffffffffffffffffffffffffffff16815260200190815260200160002060008373ffffffffffffffffffffffffffffffffffffffff1673ffffffffffffffffffffffffffffffffffffffff16815260200190815260200160002060009054906101000a900460ff16905092915050565b6000610a7a82610700565b9050919050565b60007f01ffc9a7000000000000000000000000000000000000000000000000000000007bffffffffffffffffffffffffffffffffffffffffffffffffffffffff1916827bffffffffffffffffffffffffffffffffffffffffffffffffffffffff1916149050919050565b610af4816115da565b610b33576040517f08c379a0000000000000000000000000000000000000000000000000000000008152600401610b2a90612140565b60405180910390fd5b50565b600033905090565b816004600083815260200190815260200160002060006101000a81548173ffffffffffffffffffffffffffffffffffffffff021916908373ffffffffffffffffffffffffffffffffffffffff160217905550808273ffffffffffffffffffffffffffffffffffffffff16610bb183610700565b73ffffffffffffffffffffffffffffffffffffffff167f8c5be1e5ebec7d5bd14f71427d1e84f3dd0314c0f7b2291e5b200ac8c7c3b92560405160405180910390a45050565b600080610c0383610700565b90508073ffffffffffffffffffffffffffffffffffffffff168473ffffffffffffffffffffffffffffffffffffffff161480610c455750610c4481856109db565b5b80610c8357508373ffffffffffffffffffffffffffffffffffffffff16610c6b84610517565b73ffffffffffffffffffffffffffffffffffffffff16145b91505092915050565b8273ffffffffffffffffffffffffffffffffffffffff16610cac82610700565b73ffffffffffffffffffffffffffffffffffffffff1614610d02576040517f08c379a0000000000000000000000000000000000000000000000000000000008152600401610cf9906122c4565b60405180910390fd5b600073ffffffffffffffffffffffffffffffffffffffff168273ffffffffffffffffffffffffffffffffffffffff1603610d71576040517f08c379a0000000000000000000000000000000000000000000000000000000008152600401610d6890612356565b60405180910390fd5b610d7e838383600161161b565b8273ffffffffffffffffffffffffffffffffffffffff16610d9e82610700565b73ffffffffffffffffffffffffffffffffffffffff1614610df4576040517f08c379a0000000000000000000000000000000000000000000000000000000008152600401610deb906122c4565b60405180910390fd5b6004600082815260200190815260200160002060006101000a81549073ffffffffffffffffffffffffffffffffffffffff02191690556001600360008573ffffffffffffffffffffffffffffffffffffffff1673ffffffffffffffffffffffffffffffffffffffff168152602001908152602001600020600082825403925050819055506001600360008473ffffffffffffffffffffffffffffffffffffffff1673ffffffffffffffffffffffffffffffffffffffff16815260200190815260200160002060008282540192505081905550816002600083815260200190815260200160002060006101000a81548173ffffffffffffffffffffffffffffffffffffffff021916908373ffffffffffffffffffffffffffffffffffffffff160217905550808273ffffffffffffffffffffffffffffffffffffffff168473ffffffffffffffffffffffffffffffffffffffff167fddf252ad1be2c89b69c2b068fc378daa952ba7f163c4a11628f55a4df523b3ef60405160405180910390a4610f808383836001611621565b505050565b6000610f9082610700565b9050610fa081600084600161161b565b610fa982610700565b90506004600083815260200190815260200160002060006101000a81549073ffffffffffffffffffffffffffffffffffffffff02191690556001600360008373ffffffffffffffffffffffffffffffffffffffff1673ffffffffffffffffffffffffffffffffffffffff168152602001908152602001600020600082825403925050819055506002600083815260200190815260200160002060006101000a81549073ffffffffffffffffffffffffffffffffffffffff021916905581600073ffffffffffffffffffffffffffffffffffffffff168273ffffffffffffffffffffffffffffffffffffffff167fddf252ad1be2c89b69c2b068fc378daa952ba7f163c4a11628f55a4df523b3ef60405160405180910390a46110cf816000846001611621565b5050565b60006002600083815260200190815260200160002060009054906101000a900473ffffffffffffffffffffffffffffffffffffffff169050919050565b8173ffffffffffffffffffffffffffffffffffffffff168373ffffffffffffffffffffffffffffffffffffffff160361117e576040517f08c379a0000000000000000000000000000000000000000000000000000000008152600401611175906123c2565b60405180910390fd5b80600560008573ffffffffffffffffffffffffffffffffffffffff1673ffffffffffffffffffffffffffffffffffffffff16815260200190815260200160002060008473ffffffffffffffffffffffffffffffffffffffff1673ffffffffffffffffffffffffffffffffffffffff16815260200190815260200160002060006101000a81548160ff0219169083151502179055508173ffffffffffffffffffffffffffffffffffffffff168373ffffffffffffffffffffffffffffffffffffffff167f17307eab39ab6107e8899845ad3d59bd9653f200f220920489ca2b5937696c318360405161126f91906119d8565b60405180910390a3505050565b611287848484610c8c565b61129384848484611627565b6112d2576040517f08c379a00000000000000000000000000000000000000000000000000000000081526004016112c990612454565b60405180910390fd5b50505050565b600073ffffffffffffffffffffffffffffffffffffffff168273ffffffffffffffffffffffffffffffffffffffff1603611347576040517f08c379a000000000000000000000000000000000000000000000000000000000815260040161133e906124c0565b60405180910390fd5b611350816115da565b15611390576040517f08c379a00000000000000000000000000000000000000000000000000000000081526004016113879061252c565b60405180910390fd5b61139e60008383600161161b565b6113a7816115da565b156113e7576040517f08c379a00000000000000000000000000000000000000000000000000000000081526004016113de9061252c565b60405180910390fd5b6001600360008473ffffffffffffffffffffffffffffffffffffffff1673ffffffffffffffffffffffffffffffffffffffff16815260200190815260200160002060008282540192505081905550816002600083815260200190815260200160002060006101000a81548173ffffffffffffffffffffffffffffffffffffffff021916908373ffffffffffffffffffffffffffffffffffffffff160217905550808273ffffffffffffffffffffffffffffffffffffffff16600073ffffffffffffffffffffffffffffffffffffffff167fddf252ad1be2c89b69c2b068fc378daa952ba7f163c4a11628f55a4df523b3ef60405160405180910390a46114f1600083836001611621565b5050565b606060405180602001604052806000815250905090565b60606000600161151b846117ae565b01905060008167ffffffffffffffff81111561153a57611539611cf0565b5b6040519080825280601f01601f19166020018201604052801561156c5781602001600182028036833780820191505090505b509050600082602001820190505b6001156115cf578080600190039150507f3031323334353637383961626364656600000000000000000000000000000000600a86061a8153600a85816115c3576115c261254c565b5b0494506000850361157a575b819350505050919050565b60008073ffffffffffffffffffffffffffffffffffffffff166115fc836110d3565b73ffffffffffffffffffffffffffffffffffffffff1614159050919050565b50505050565b50505050565b60006116488473ffffffffffffffffffffffffffffffffffffffff16611901565b156117a1578373ffffffffffffffffffffffffffffffffffffffff1663150b7a02611671610b36565b8786866040518563ffffffff1660e01b815260040161169394939291906125d0565b6020604051808303816000875af19250505080156116cf57506040513d601f19601f820116820180604052508101906116cc9190612631565b60015b611751573d80600081146116ff576040519150601f19603f3d011682016040523d82523d6000602084013e611704565b606091505b506000815103611749576040517f08c379a000000000000000000000000000000000000000000000000000000000815260040161174090612454565b60405180910390fd5b805181602001fd5b63150b7a0260e01b7bffffffffffffffffffffffffffffffffffffffffffffffffffffffff1916817bffffffffffffffffffffffffffffffffffffffffffffffffffffffff1916149150506117a6565b600190505b949350505050565b600080600090507a184f03e93ff9f4daa797ed6e38ed64bf6a1f010000000000000000831061180c577a184f03e93ff9f4daa797ed6e38ed64bf6a1f01000000000000000083816118025761180161254c565b5b0492506040810190505b6d04ee2d6d415b85acef81000000008310611849576d04ee2d6d415b85acef8100000000838161183f5761183e61254c565b5b0492506020810190505b662386f26fc10000831061187857662386f26fc10000838161186e5761186d61254c565b5b0492506010810190505b6305f5e10083106118a1576305f5e10083816118975761189661254c565b5b0492506008810190505b61271083106118c65761271083816118bc576118bb61254c565b5b0492506004810190505b606483106118e957606483816118df576118de61254c565b5b0492506002810190505b600a83106118f8576001810190505b80915050919050565b6000808273ffffffffffffffffffffffffffffffffffffffff163b119050919050565b6000604051905090565b600080fd5b600080fd5b60007fffffffff0000000000000000000000000000000000000000000000000000000082169050919050565b61196d81611938565b811461197857600080fd5b50565b60008135905061198a81611964565b92915050565b6000602082840312156119a6576119a561192e565b5b60006119b48482850161197b565b91505092915050565b60008115159050919050565b6119d2816119bd565b82525050565b60006020820190506119ed60008301846119c9565b92915050565b600081519050919050565b600082825260208201905092915050565b60005b83811015611a2d578082015181840152602081019050611a12565b60008484015250505050565b6000601f19601f8301169050919050565b6000611a55826119f3565b611a5f81856119fe565b9350611a6f818560208601611a0f565b611a7881611a39565b840191505092915050565b60006020820190508181036000830152611a9d8184611a4a565b905092915050565b6000819050919050565b611ab881611aa5565b8114611ac357600080fd5b50565b600081359050611ad581611aaf565b92915050565b600060208284031215611af157611af061192e565b5b6000611aff84828501611ac6565b91505092915050565b600073ffffffffffffffffffffffffffffffffffffffff82169050919050565b6000611b3382611b08565b9050919050565b611b4381611b28565b82525050565b6000602082019050611b5e6000830184611b3a565b92915050565b611b6d81611b28565b8114611b7857600080fd5b50565b600081359050611b8a81611b64565b92915050565b60008060408385031215611ba757611ba661192e565b5b6000611bb585828601611b7b565b9250506020611bc685828601611ac6565b9150509250929050565b600080600060608486031215611be957611be861192e565b5b6000611bf786828701611b7b565b9350506020611c0886828701611b7b565b9250506040611c1986828701611ac6565b9150509250925092565b600060208284031215611c3957611c3861192e565b5b6000611c4784828501611b7b565b91505092915050565b611c5981611aa5565b82525050565b6000602082019050611c746000830184611c50565b92915050565b611c83816119bd565b8114611c8e57600080fd5b50565b600081359050611ca081611c7a565b92915050565b60008060408385031215611cbd57611cbc61192e565b5b6000611ccb85828601611b7b565b9250506020611cdc85828601611c91565b9150509250929050565b600080fd5b600080fd5b7f4e487b7100000000000000000000000000000000000000000000000000000000600052604160045260246000fd5b611d2882611a39565b810181811067ffffffffffffffff82111715611d4757611d46611cf0565b5b80604052505050565b6000611d5a611924565b9050611d668282611d1f565b919050565b600067ffffffffffffffff821115611d8657611d85611cf0565b5b611d8f82611a39565b9050602081019050919050565b82818337600083830152505050565b6000611dbe611db984611d6b565b611d50565b905082815260208101848484011115611dda57611dd9611ceb565b5b611de5848285611d9c565b509392505050565b600082601f830112611e0257611e01611ce6565b5b8135611e12848260208601611dab565b91505092915050565b60008060008060808587031215611e3557611e3461192e565b5b6000611e4387828801611b7b565b9450506020611e5487828801611b7b565b9350506040611e6587828801611ac6565b925050606085013567ffffffffffffffff811115611e8657611e85611933565b5b611e9287828801611ded565b91505092959194509250565b60008060408385031215611eb557611eb461192e565b5b6000611ec385828601611b7b565b9250506020611ed485828601611b7b565b9150509250929050565b7f4e487b7100000000000000000000000000000000000000000000000000000000600052602260045260246000fd5b60006002820490506001821680611f2557607f821691505b602082108103611f3857611f37611ede565b5b50919050565b7f4552433732313a20617070726f76616c20746f2063757272656e74206f776e6560008201527f7200000000000000000000000000000000000000000000000000000000000000602082015250565b6000611f9a6021836119fe565b9150611fa582611f3e565b604082019050919050565b60006020820190508181036000830152611fc981611f8d565b9050919050565b7f4552433732313a20617070726f76652063616c6c6572206973206e6f7420746f60008201527f6b656e206f776e6572206f7220617070726f76656420666f7220616c6c000000602082015250565b600061202c603d836119fe565b915061203782611fd0565b604082019050919050565b6000602082019050818103600083015261205b8161201f565b9050919050565b7f4552433732313a2063616c6c6572206973206e6f7420746f6b656e206f776e6560008201527f72206f7220617070726f76656400000000000000000000000000000000000000602082015250565b60006120be602d836119fe565b91506120c982612062565b604082019050919050565b600060208201905081810360008301526120ed816120b1565b9050919050565b7f4552433732313a20696e76616c696420746f6b656e2049440000000000000000600082015250565b600061212a6018836119fe565b9150612135826120f4565b602082019050919050565b600060208201905081810360008301526121598161211d565b9050919050565b7f4552433732313a2061646472657373207a65726f206973206e6f74206120766160008201527f6c6964206f776e65720000000000000000000000000000000000000000000000602082015250565b60006121bc6029836119fe565b91506121c782612160565b604082019050919050565b600060208201905081810360008301526121eb816121af565b9050919050565b600081905092915050565b6000612208826119f3565b61221281856121f2565b9350612222818560208601611a0f565b80840191505092915050565b600061223a82856121fd565b915061224682846121fd565b91508190509392505050565b7f4552433732313a207472616e736665722066726f6d20696e636f72726563742060008201527f6f776e6572000000000000000000000000000000000000000000000000000000602082015250565b60006122ae6025836119fe565b91506122b982612252565b604082019050919050565b600060208201905081810360008301526122dd816122a1565b9050919050565b7f4552433732313a207472616e7366657220746f20746865207a65726f2061646460008201527f7265737300000000000000000000000000000000000000000000000000000000602082015250565b60006123406024836119fe565b915061234b826122e4565b604082019050919050565b6000602082019050818103600083015261236f81612333565b9050919050565b7f4552433732313a20617070726f766520746f2063616c6c657200000000000000600082015250565b60006123ac6019836119fe565b91506123b782612376565b602082019050919050565b600060208201905081810360008301526123db8161239f565b9050919050565b7f4552433732313a207472616e7366657220746f206e6f6e20455243373231526560008201527f63656976657220696d706c656d656e7465720000000000000000000000000000602082015250565b600061243e6032836119fe565b9150612449826123e2565b604082019050919050565b6000602082019050818103600083015261246d81612431565b9050919050565b7f4552433732313a206d696e7420746f20746865207a65726f2061646472657373600082015250565b60006124aa6020836119fe565b91506124b582612474565b602082019050919050565b600060208201905081810360008301526124d98161249d565b9050919050565b7f4552433732313a20746f6b656e20616c7265616479206d696e74656400000000600082015250565b6000612516601c836119fe565b9150612521826124e0565b602082019050919050565b6000602082019050818103600083015261254581612509565b9050919050565b7f4e487b7100000000000000000000000000000000000000000000000000000000600052601260045260246000fd5b600081519050919050565b600082825260208201905092915050565b60006125a28261257b565b6125ac8185612586565b93506125bc818560208601611a0f565b6125c581611a39565b840191505092915050565b60006080820190506125e56000830187611b3a565b6125f26020830186611b3a565b6125ff6040830185611c50565b81810360608301526126118184612597565b905095945050505050565b60008151905061262b81611964565b92915050565b6000602082840312156126475761264661192e565b5b60006126558482850161261c565b9150509291505056fea2646970667358221220c402d2051b714f5e25d7cef1829a66ee6e92f5dc9a850fe77fdee8c970c4118d64736f6c63430008130033a2646970667358221220e49bfad414f52070e0dedb9341dc371e69ad4f8df0450057b5eac0b500f4ea5664736f6c63430008130033",
  "immutableReferences": {},
  "source": "// SPDX-License-Identifier: GPL-3.0\n\npragma solidity >=0.8.0 <0.9.0;\n\nimport \"./Nft.sol\";\n\ncontract Subasta {\n\n    NFT public nftContract;\n\n    //Eventos para notificar a los usuarios sobre las subastas\n    event NuevaSubasta(uint256 subastaId, address creador);\n    event NuevaOferta(uint256 subastaId, address apostador, uint256 cantidad);\n    event SubastaFinalizada(uint256 subastaId, address ganador, uint256 cantidad);\n\n    //Struct de una subasta\n    struct subasta {\n        uint256 idSubasta;\n        address nftContract;\n        address creador;\n        string nombreArticulo;\n        uint256 idNFT;\n        string descripcion;\n        uint256 precioActual;\n        uint256 duracion;\n        uint256 finalizacion;\n        address ganador;\n        bool finalizada;\n    }\n\n    //Lista subastas \n    mapping(uint256 => subasta) public subastas;\n\n    //Lista NFT\n    mapping (uint256 => NFT) private nfts;\n    \n    uint256 tokenCounter = 0;\n    uint256 idSubasta = 0;\n\n    function getOwner(uint256 _idSubasta) public view returns (address){\n        return nfts[_idSubasta].getOwnerOfNFT(subastas[_idSubasta].idNFT);\n    }\n\n    //Funcion para iniciar una nueva subasta\n    function iniciarSubasta(string memory _nombreArticulo, string memory _simboloArticulo,\n     string memory _descripcion, uint256 _precioInicial, uint256 _duracion) public returns (subasta memory){\n\n            //Craer el NFT\n            nftContract = new NFT(_nombreArticulo, _simboloArticulo);\n            nftContract.createNFT(address(this), tokenCounter);\n            nfts[idSubasta] = nftContract;\n\n            //Almacenamos los datos de la subasta en una nueva estructura de la subasta\n            subasta memory nuevaSubasta = subasta({\n                idSubasta: idSubasta,\n                nftContract: address(nftContract),\n                creador: msg.sender,\n                nombreArticulo: _nombreArticulo,\n                idNFT: tokenCounter,\n                descripcion: _descripcion,\n                precioActual: _precioInicial,\n                duracion: _duracion,\n                finalizacion: (block.timestamp + _duracion),\n                ganador: address(0),\n                finalizada: false\n            });\n\n            //Agregar subasta al mapping de subastas\n            subastas[idSubasta] = nuevaSubasta;\n\n            //Evento de una nueva subasta\n            emit NuevaSubasta(idSubasta, msg.sender);\n            idSubasta = idSubasta + 1;\n\n            tokenCounter = tokenCounter + 1;\n\n            return nuevaSubasta;\n        }\n\n        //Funcin para realizar una oferta\n        function apostar(uint256 _subastaId) public payable {\n            //Comprobar de que la subasta este en curso\n            require(block.timestamp < subastas[_subastaId].finalizacion, \"La subasta ha finalizado\");\n            //Comprobar que se supera la apuesta actual\n            require(msg.value > subastas[_subastaId].precioActual, \"La apuesta debe ser superior al precio actual\");\n\n            //Devolver el dinero al usuario que iba ganando la subasta\n            if(subastas[_subastaId].ganador != address(0)){\n                payable(subastas[_subastaId].ganador).transfer(subastas[_subastaId].precioActual);\n            }\n\n            //Actualizar la apuesta actual y el ganador actual\n            subastas[_subastaId].precioActual = msg.value;\n            subastas[_subastaId].ganador = msg.sender;\n\n            emit NuevaOferta(_subastaId, msg.sender, msg.value);\n        }\n\n        function finalizacionSubasta(uint256 _idSubasta) public payable {\n            //El id de la subasta que se recibe por parametros sea menor igul al contador de idSubasta\n            require(_idSubasta <= idSubasta);\n            //Solo el creador de la subasta puede llamar a la funcion finalizar\n            require(msg.sender == subastas[_idSubasta].creador);\n            //Comprobar que la subasta no este en curso\n            require(block.timestamp > subastas[_idSubasta].finalizacion, \"La subasta no ha finalizado\");\n            \n\n            //Paga el ganador al creador de la subasta\n            payable (subastas[_idSubasta].ganador).transfer(subastas[_idSubasta].precioActual);\n\n            //Enviar NFT al ganador\n            nfts[_idSubasta].transferNFT(address(this), subastas[_idSubasta].ganador, subastas[_idSubasta].idNFT);\n            \n            //Emitir subasta finalizada\n            emit SubastaFinalizada( _idSubasta, subastas[_idSubasta].ganador, subastas[_idSubasta].precioActual);\n\n            subastas[_idSubasta].finalizada = true;\n            \n            \n        }\n}",
  "sourcePath": "/Users/ignacio/Subastas-truffle/contracts/Subasta.sol",
  "compiler": {
    "name": "solc",
    "version": "0.8.19+commit.7dd6d404.Emscripten.clang"
  },
  "schemaVersion": "3.4.13",
  "updatedAt": "2023-05-17T15:45:15.931Z",
  "networkType": "ethereum",
  "devdoc": {
    "kind": "dev",
    "methods": {},
    "version": 1
  },
  "userdoc": {
    "kind": "user",
    "methods": {},
    "version": 1
  }
}